:100000000C944B020C94640D0C9492020C9492028A
:100010000C9492020C9492020C9492020C94920210
:100020000C9492020C9492020C9410200C94E420F4
:100030000C94941A0C9492020C9492020C949202D6
:100040000C9492020C9492020C9492020C949202E0
:100050000C9492020C94DF1A0C9492020C9492026B
:100060000C9492020C9492020C9492020C949202C0
:100070000C9492020C9492020C9492020C949202B0
:100080000C9492020C9492020C9492020C949202A0
:100090000C9492020C9492020C9492020C94920290
:1000A0000C9492020C9492020C94920229001E006D
:1000B0001F002000210022002B0014001A0009005C
:1000C00013000A00E00004001500160017000700E6
:1000D00001511D001B000600190005000000000072
:1000E0002D002C00E200E1002A0027002600250058
:1000F000240023004C0033001C0018000F000D00EA
:10010000340012000C00080011000B0001513800EF
:100110003700360010000E000000000042002800EA
:10012000E3002E00005C00000000AE00AC00AB005D
:1001300000000000000000000000000000000000BF
:100140000000350031000000000046000000000003
:10015000000000000000000050004F00510052005D
:10016000005C00000000A900AA00A8001A5C0000C2
:10017000000000000000000000000000000030004F
:100180002F000000000065000000000000000000DB
:10019000000000004D004A004E004B003A003B00BA
:1001A0003C003D003E003F00000000000000000059
:1001B000000000000000000000000000000000003F
:1001C000000000000000000000000000000000002F
:1001D000000000000000005C4500440043004200B5
:1001E000410040000000000000000000000000008E
:1001F00000000000000000000000000000000000FF
:1002000000000000000000000000000000000000EE
:100210000000005C44454255473A206469736162BE
:100220006C65642E0A0044454255473A20656E616C
:10023000626C65642E0A0000000000000000002AC5
:100240002B2800000000000000000000000000005B
:10025000000029000000002C1E3420212224342616
:1002600027252E362D3738271E1F2021222324250F
:10027000263333362E37381F0405060708090A0BC4
:100280000C0D0E0F101112131415161718191A1B36
:100290001C1D2F3130232D350405060708090A0BD4
:1002A0000C0D0E0F101112131415161718191A1B16
:1002B0001C1D2F3130354C000000000000000000F4
:1002C00000000000000000000000007E0F00D4FFCE
:1002D000FFFFC7000000780A0025303862003A208E
:1002E0000025303258000A722F6320303132333407
:1002F0003536370A000A002530325820006B657900
:10030000626F6172645F7265706F72743A20000A86
:100310000025303258006B6579626F6172645F73DB
:1003200065745F6C65643A20005B735D004B6579B2
:10033000626F6172642073746172742E0A005B577D
:100340005D005B535D005B525D005B445D005B43A1
:100350005D0004033000000026034B0065006500CB
:10036000620069006F00200049007200690073009C
:1003700020005200650076002E00200034000000AE
:100380000E034B0065006500620069006F0000000D
:100390000403090409025B00030100A0FA09040038
:1003A00000010301010009211101000122400007A1
:1003B00005810308000A0904010001030000000987
:1003C00021110100012232000705820320000A09E1
:1003D0000402000203000000092111010001222291
:1003E0000007058303200001070503032000011215
:1003F0000110010000000810CB5642000401020366
:10040000010631FF0974A1010975150026FF009549
:1004100020750881020976150026FF0095207508D1
:100420009102C005010980A101850319012AB700C5
:10043000150126B700950175108100C0050C090152
:10044000A101850419012AA002150126A002950127
:1004500075108100C005010906A101050719E029F1
:10046000E715002501950875018102950175088140
:10047000010507190029FF150026FF0095067508DC
:10048000810005081901290595057501910295015D
:1004900075039101C00011241FBECFEFDAE0DEBF6B
:1004A000CDBF04B603FE27C080917C0290917D02EF
:1004B000A0917E02B0917F028730904BA740B04B55
:1004C000D1F410927C0210927D0210927E02109262
:1004D0007F0214BE84B7877F84BF0FB6F894A895B7
:1004E00080916000886180936000109260000FBE70
:1004F000E0E0F8E3099511E0A0E0B1E0E2EEFBE412
:1005000002C005900D92A63AB107D9F722E0A6EAFB
:10051000B1E001C01D92AC37B207E1F70E94451D62
:100520000C94C7250C940000FF93EF93E091A60173
:10053000F091A701309709F00995EF91FF91089587
:10054000FC018591803011F0EFDFFBCF0895FF278C
:10055000E0E230E247FF0CC0419597FF09C0EDE2B1
:100560006095709580959095611D711D811D911DFF
:1005700027FF02C0219530E350E2AA27660F771FBC
:10058000881F991FAA1FA41710F0A41B63955A95E2
:10059000A9F7AA3008F0A95FA05DAF93F3956115A4
:1005A00071058105910541F7ED3211F4EF93F39553
:1005B000F21718F43F93F395FBCF8F91B5DFFA95BF
:1005C000E1F70895E991F9918591803021F0853224
:1005D00019F0AADFF9CF089520E0E894559155323B
:1005E000C1F3503311F4689455915A3348F4505381
:1005F00090F3220F022E220F220F200D250FF4CF91
:100600000EF4219589919991533619F3533729F1B5
:10061000533559F1BC0188279927E8945C3621F4B9
:100620008991999168945591543639F446EF7EF04A
:1006300077FF0DC08FEF9FEF0AC055374AE039F0C2
:10064000583540E121F0523642E009F00895FF9319
:10065000EF937DDFEF91FF91B7CFFF93EF93FC0115
:1006600081918030B9F360DFFBCFFF93EF9368DFB8
:10067000F1CFDF93CF93CDB7DEB72596A3DFCF9130
:10068000DF91089560E070E0CB010E947E190C9428
:100690008A19CF93DF939C013A9521153F4168F564
:1006A000EC01CC27D170DC01AA27B270AC01442741
:1006B00054709C012227387094FF11C080E1CD2B2B
:1006C00009F480E0AB2B09F08062452B09F08064CF
:1006D000232B09F08068FB01DF91CF91099481E021
:1006E000CD2B09F480E0AB2B09F08260452B09F09B
:1006F0008460232B81F38860EECFDF91CF91089542
:10070000CF93DF93EC01805E9109089720F06FEDA5
:1007100072E1209711F464E870E1CE010E94490370
:100720008C2FDF91CF910C94980FCF93DF93EC0136
:100730000E942210CE01805E9109089720F066EE9B
:1007400072E1209711F46BE870E1CE01DF91CF9157
:100750000C944903CF93DF93EC010E948003CE01F8
:10076000DF91CF910C94950381E0089581E0089585
:100770000C94B60308950C94BA031F93CF93DF93A0
:1007800000D000D00F92CDB7DEB749835A836B8378
:100790003091CE0189819A8131111DC06623B9F053
:1007A0002223A9F00E94EF17182F682F89819A81C0
:1007B0000E94981769817A81812F0F900F900F9076
:1007C0000F900F90DF91CF911F910C9440050E94E4
:1007D000C617182FEFCF0E94EF1769817A81EDCFEE
:1007E000FC01262F408151816281738184810C94A8
:1007F000BD03CF93DF93EC0160E00E94F003BE01E4
:10080000DF91CF910C94BB03FF920F931F93CF9373
:10081000DF93E82FF0E0E95CFD4FF490C82FC69518
:10082000C695C695D0E0FE01E953FD4F049187704F
:1008300010E0082E02C0159507950A94E2F70170A2
:100840001127C954DD4FFE01C491D0E002C0D595F7
:10085000C7958A95E2F7C170DD270115110519F0DA
:1008600081EE0E94980F209719F086EE0E94980F53
:100870008F2D0E947110CD2B19F086EE0E94221050
:10088000012B41F081EEDF91CF911F910F91FF90ED
:100890000C942210DF91CF911F910F91FF9008953A
:1008A000EF92FF920F931F93CF93DF93EC01162FDC
:1008B0000AE08881882309F454C0813009F04EC0D1
:1008C0008981813099F47E0122E0E20EF11C8A8157
:1008D0000E947110E7012196812F815050F3EFE9BA
:1008E000FFE03197F1F700C00000F7CF823041F40C
:1008F0007E0182E0E80EF11C8A810E94980FEACF07
:10090000833041F47E01E2E0EE0EF11C8A810E9408
:100910002210E0CF843011F02196DDCF2A8122967B
:1009200090E080E0AE014F5F5F4F2053330B2A30E1
:10093000310548F0019778F2EFE9FFE03197F1F7E0
:1009400000C00000F7CF089FB001099F700D11246F
:10095000C901860F971F2981EA01E4CF0E94040490
:10096000BACFDF91CF911F910F91FF90EF90089533
:1009700060E00C9450040E945019811102C00E9442
:10098000E6190C9443070C94460708950C94C5048B
:1009900081E008950C94C804CF93C82F0E94C60428
:1009A0008C2FCF910C94CA0408950E94FF120E94CC
:1009B000D4042FEF84E39CE0215080409040E1F785
:1009C00000C000000C94031B0F931F93CF93DF9381
:1009D000EC0161E00E94F0038C01BE010E94B803AB
:1009E000882341F1BE01C8010E94530C882311F1F4
:1009F000BE01C8010E94390A8823E1F0BE01C80186
:100A00000E948B0A8823B1F0BE01C8010E94AE0B80
:100A1000882381F08A81882341F101308CE5180711
:100A200079F00E3D8CE51807E9F001151C45E9F455
:100A30000E94D50480E0DF91CF911F910F9108951E
:100A400090914402892F8E7F90FF816080934402B1
:100A500080FF05C086E292E00E94A002EBCF84E115
:100A600092E0FACF0E94E619E5CFCE01DF91CF9157
:100A70001F910F910C94B40390E080E008950895C5
:100A8000972F70E026E0929F600D711D1124FB01ED
:100A90009CE3899FE00DF11D1124EE0FFF1FE4552B
:100AA000FF4F859194910895FC01EE0FFF1FE952CD
:100AB000FD4F859194910895CF93DF930E94400557
:100AC0000E946806EC01811520E5920708F041C0FC
:100AD000811530E4930708F0B4C0803E910518F505
:100AE000803C910508F09DC0883A910570F4853AE4
:100AF000910508F08EC081309105F9F00097E9F07A
:100B00000497D8F4D0E0C0E018C08F3B9105D0F72F
:100B1000C85AD0E0CC0FDD1FC15DDE4F0990D881EF
:100B2000C02DD4640AC08115904258F4C11581E0EB
:100B3000D80718F4C83ED10528F7CE01DF91CF9130
:100B40000895C11590E3D90708F071C0CE019F70D8
:100B50006AC0811525E5920758F5811534E593079C
:100B600008F09EC0811542E5940750F4C11581E557
:100B7000D80708F469C0DC2FCC27C16FD06ADDCF5D
:100B8000982F969596959E0123703327C115D345CE
:100B900008F077C0C1E0D0E002C0CC0FDD1F2A957D
:100BA000E2F720E2929FC0011124C82BD92B67C025
:100BB000C11589E5D807A8F4C11598E5D90708F04B
:100BC00074C0C11526E5D20708F09CCF8C2F0E9477
:100BD000FF06C82FD0E0DC2FCC27CC27DF71D062F6
:100BE000ACCFC1153AE5D30708F464C0CE019056E6
:100BF0008115904208F086CF8D2F8F710E94FF06DD
:100C000090E0982F882788279F719C012C2BE90161
:100C1000E6CFC55AD0E0C35ADE4FC881D0E0D064D9
:100C20008CCF805C91090E945405EC0186CFCE01E7
:100C30009927D3FF03C0EC01D86C7FCFEC01D06CB7
:100C40007CCFDF70D06A79CFCE01E4E096958795AE
:100C5000EA95E1F783702C2F26952695237090E274
:100C6000299F90011124382B8C2F8370C1E0D0E094
:100C700002C0CC0FDD1F8A95E2F7C22BD32BDC68B4
:100C80005CCFC1E0D0E002C0CC0FDD1F2A95E2F7B7
:100C900030E2939FC0011124C82BD92BDA684DCFC5
:100CA000D82FCC27C46FD06A48CFDC2FCC27C06F99
:100CB000D06A43CF8C2F8F700E94FF0634E0D69508
:100CC000C7953A95E1F7CF709C2FEC01D06935CFED
:100CD00082389105B1F1B0F48133910509F475C002
:100CE00048F48932910509F469C08A32910509F402
:100CF00073C008958533910509F459C0893391056E
:100D000001F10895833E9105A9F138F4803E9105E3
:100D1000F9F0823E910549F10895863E9105A9F1C9
:100D2000873E9105C9F1843E910519F520916E0227
:100D300021FF1FC080916D0284FD14C087EE90E0FA
:100D4000089520916D022370A1F080EE90E0089547
:100D500020916D0220FD47C030916E0230FF09C026
:100D600024FF44C090E080E004C020916D0222FD89
:100D7000F7CF089520916D0222FD3BC030916E02A5
:100D800030FDE3CF24FFF5CFEDCF20916D0223FF9F
:100D9000F0CF24FDE7CFD2CF20916D0223FD2CC0F0
:100DA00030916E0231FFEECF84EE90E008952091F5
:100DB0006D0225FFDECF89E290E0089520916D025B
:100DC00025FFD7CF85E390E0089520916D0226FF9F
:100DD000D0CF8AE290E0089520916D0226FFC9CF1E
:100DE00081E390E0089589E390E0089583EE90E038
:100DF000089582EE90E0089586EE90E00895909137
:100E00006D0292FF06C0282F28712830F9F4877FE1
:100E1000846093FF06C0282F28712831F1F4877E63
:100E2000846120916E0220FF06C0382F387138305F
:100E3000D9F4877F816021FF06C0282F28712831CF
:100E4000D1F4877E816194FD877E0895282F2471D7
:100E50002430F9F68B7F8860DCCF282F2471243171
:100E600001F78B7E8861DDCF382F3171313019F772
:100E70008E7F8860E0CF282F2171213121F78E7E6F
:100E80008861E1CF08950C94420708950C944507BA
:100E9000E82FF0E0E35AFD4F80810895CF92DF9272
:100EA000EF92FF920F931F93CF93DF9386EE92E022
:100EB0000E94A0028DE5E82E82E0F82ED0E0C0E08E
:100EC00091EEC92E92E0D92E09ED12E0DF93CF9377
:100ED000DF92CF920E9439038EED92E00E94A00231
:100EE000F70181917F010E9438191F928F931F9300
:100EF0000F930E94390387ED92E00E94A002219691
:100F00008DB79EB708960FB6F8949EBF0FBE8DBFE3
:100F1000CA30D105D9F6DF91CF911F910F91FF9083
:100F2000EF90DF90CF90089580EA8A95F1F70895C9
:100F300008951F93CF93DF93CDB7DEB760970FB6B9
:100F4000F894DEBF0FBECDBF0E94690980911001E9
:100F500081112EC0FE01359686E0DF011D928A9533
:100F6000E9F781E3898382E38A8382E98B8381EFD6
:100F70008C8384EF8D833497A6E0B1E0CE010B968D
:100F800021912D938E179F07D9F726E0E9E2F1E032
:100F9000DE011B9601900D922A95E1F7FC01A0E07D
:100FA000B1E0CE01419621912D938E179F07D9F77D
:100FB0008091100195E0811190E09093680285E0A6
:100FC000891B80936702A6E0B1E04BE051E061E04D
:100FD00070E08D91E82FE295EF70F0E011A18F7035
:100FE0009B0101C0220F8A95EAF7922F90959123D9
:100FF00091A382A1822B82A34A175B0751F7A0E03D
:10100000B1E046E051E061E070E08D91E82FE295BB
:10101000EF70F0E011A18F709B0101C0220F8A9543
:10102000EAF7922F9095912391A382A1822B82A31C
:101030004A175B0751F7E3E5F2E0ADE5B2E08DE575
:1010400092E011921D928E179F07D9F785E00E94BA
:101050000F090E94BB0460960FB6F894DEBF0FBE66
:10106000CDBFDF91CF911F910C9473090E944D0960
:101070008823F9F08091670290E0835A9D4F0E9487
:101080008609811113C08091A8018F5F8093A80108
:10109000863050F0E0916702F0E0E35AFD4F108295
:1010A00011821282138214820C94C3041092A8013C
:1010B000FBCF8091680290E0835A9D4F0E949F0968
:1010C0000C9498079F92AF92BF92CF92DF92EF92CB
:1010D000FF920F931F93CF93DF9306E011E083E518
:1010E000E82E82E0F82E9BE0C92E91E0D92E912CBB
:1010F000C1E0D0E0F80181918F01E82FE295EF7017
:10110000F0E091A18F709E0101C0220F8A95EAF74D
:10111000892F822B81A3F80192915F01E92FE2953B
:10112000EF70F0E022A19F70AE0102C0440F551F86
:101130009A95E2F7CA018095822382A30E949407C0
:10114000E0E0F1E050E040E020E03191A32FA295F3
:10115000AF70B0E090968C9190E03F7002C0959592
:1011600087953A95E2F780FD56C08C2F042E01C07A
:10117000880F0A94EAF7282B4F5F5F4F46305105DE
:1011800021F7F5019081E92FE295EF70F0E031A1B0
:101190009F70AE0102C0440F551F9A95E2F7CA0135
:1011A0008095832381A3F5018081E82FE295EF707C
:1011B000F0E092A18F70AE0101C0440F8A95EAF76A
:1011C000892F842B82A3F7018081281731F1208396
:1011D00081E0982AFFEFEF1AFF0AC016D10609F046
:1011E00089CF6091680270E0635A7D4F292D45E0F8
:1011F00083E592E00E9410090E943608892DDF9154
:10120000CF911F910F91FF90EF90DF90CF90BF9003
:10121000AF909F90089580E0AECF80E0DACF089540
:10122000FF920F931F93CF93DF93F82E092F162F62
:10123000D72FC42F222349F081E08093AB010E9475
:10124000C41A9093AA018093A9018091AB018823CD
:10125000A1F08091A9019091AA010E94D01A06974D
:1012600060F0EF2DF02FA12FBD2FCE0FDF2FD11D5E
:10127000EC17FD0741F41092AB01DF91CF911F9164
:101280000F91FF90089581918D93F2CF55985D98BD
:1012900089B185FB882780F908958091AC0181117F
:1012A00011C08091D80080618093D8008AE18A952E
:1012B000F1F700C09091D900892F817090FF82E0F2
:1012C0008093AC0181E09091AC01913009F080E015
:1012D00008950E944609809310010E944D098111D2
:1012E0000C947A0908950E944D09811102C00C9452
:1012F0008009089561E070E081E191E00C94150DA2
:1013000061E070E081E191E00C941C0DCF93DF93DC
:10131000D82FC92F0E94B60D009779F4ED2FFC2F1E
:10132000DC01A255BE4F2C91219301968530910589
:10133000B9F781E0DF91CF91089580E0FBCF30E0F5
:1013400020E0FC014191CF01F901E255FE4F4083BD
:101350002F5F3F4F25303105A1F70895AF92BF921F
:10136000CF92DF92EF92FF920F931F93CF93DF9371
:101370007C015B01C42FD22FFC0182818823F9F00C
:101380004093B5010E94C41A9093B4018093B301B5
:1013900080E28C0F883008F061C0C77081E001C026
:1013A000880FCA95EAF7DF91CF911F910F91FF90B7
:1013B000EF90DF90CF90BF90AF900C94841010917D
:1013C000B501141340C08091B3019091B4010E9403
:1013D000D01A6C01B701C5010E947515C816D9064F
:1013E00090F5C0E2CD0F1D17B9F080E2810F883073
:1013F00040F4177081E001C0880F1A95EAF70E9447
:101400008B10C83048F481E09D2F977001C0880F81
:101410009A95EAF70E948410802F0E947110C830BC
:10142000E8F4D77081E001C0880FDA95EAF7DF9120
:10143000CF911F910F91FF90EF90DF90CF90BF90D1
:10144000AF900C948B1080E28C0F883038F4C7700A
:1014500081E001C0880FCA95EAF7E9CFDF91CF910B
:101460001F910F91FF90EF90DF90CF90BF90AF90C2
:1014700008950F939C01CB01233F4CE5340759F1AC
:10148000A8F4283DFCE53F0701F1293D4CE5340770
:10149000D1F1273D3C4591F406E221EE41EE67EDA6
:1014A0007CE50E94AE0980E00F910895253FFCE5A0
:1014B0003F07E9F0B0F0263F3C45F9F0FC0182819E
:1014C000882339F11092B501EFCF07E225EE45EE02
:1014D00068ED7CE5E6CF06E221EE40EE63EF7CE5C9
:1014E000E0CF07E225EE44EE64EF7CE5DACF06E2DA
:1014F00021EE42EE65EF7CE5D4CF07E225EE46EE25
:1015000066EF7CE5CECF08E221E045EE69ED7CE5B3
:10151000C8CF81E0C9CFCF93DF93EC01FB0182817B
:10152000882309F419C1C230FCE5DF07C0F1C631D8
:101530009CE5D90730F09E012A5F3C4529303105F2
:1015400070F50E94631990936E0280936D02C03112
:10155000ECE5DE0709F4CFC008F05BC0C8308CE5CD
:10156000D80709F4B6C088F5C430ECE5DE0709F405
:10157000A8C0C0F4C2308CE5D80709F49CC08091A3
:101580006D028260C330DC4509F498C080916D0221
:1015900090916E020E9471190E94FF1280E0DF910B
:1015A000CF91089580916D028061C630ECE5DE0731
:1015B00009F484C080916D028860C730DC4508F46E
:1015C0007DC080916D02806279C0CC308CE5D807F7
:1015D00009F489C070F480916D028C60CA30ECE52A
:1015E000DE0709F46BC008F478C080916D028E7F2D
:1015F00065C0CE308CE5D80709F479C080916D02C2
:101600008B7FCF30DC4508F459C080916D028F7E0E
:1016100055C0CB3FECE5DE0709F457C030F5C331C8
:101620008CE5D80709F46FC078F4C131ECE5DE072A
:1016300009F465C0C231DC4509F0A8CF0E94FF1251
:1016400080916D028F773AC0C5318CE5D80709F4D7
:1016500062C008F476C080916E028160CA3FDC45AA
:1016600009F094CF80936E0291CFCF3FFCE5DF0766
:1016700009F44DC088F480916E028D7FCD3F9CE5CA
:10168000D90781F380916E028E7FCE3FDC4550F307
:1016900080916E028360E6CFC130FDE5DF0709F47B
:1016A00059C008F444C080E0C230DD4509F06ECF77
:1016B0000E94E8196BCF80916D02816080936D026A
:1016C00065CF80916D028460F9CF80916E02826057
:1016D000C9CF80916D028064F1CF0E94FF1280918A
:1016E0006D028068EBCF80916D028D7FE7CF809196
:1016F0006D02877FE3CF80916D028F7DDFCF809178
:101700006D028F7BDBCF80916D02837FD7CF80917D
:101710006E028C7FA7CF80916D0282FB992790F992
:1017200021E0922790FB82F990FB83F9C7CF80914B
:101730006E02982F909591708E7F892B90FB81F986
:1017400091CF0E94FF1290916D02892F97FB87F92C
:101750008058B4CF81E0ACCF81E021CFCF93DF932D
:10176000EB0186319C4511F50E9484189A819923DA
:1017700099F08A7A91E009F490E09093B601811192
:1017800009C089E20E945F180E94D01880E0DF91B2
:10179000CF91089585E3F6CF8091B601811104C001
:1017A00089E20E946618F0CF85E3FBCF81E0EFCF9E
:1017B0008091B7019091B801892BE1F08091B90136
:1017C0009091BA010E94D01A2091190130911A010A
:1017D0002817390780F48091B7019091B801926081
:1017E0000E94AA031092BA011092B9011092B80196
:1017F0001092B70108958091B7010E947110F2CF45
:10180000CF93DF93EC010E94C41A9093BA018093A6
:10181000B901D093B801C093B701DF91CF9108957A
:1018200080911B01882321F010921B010C94D80B8E
:1018300081E080931B01089510921B010C94D80B3A
:101840000F931F93CF93DF93CDB7DEB728970FB6D3
:10185000F894DEBF0FBECDBF80911A018F938091A7
:1018600019018F9380E691E09F938F931F9288E0F8
:101870008F938E010F5F1F4F1F930F930E94A7221C
:10188000C8010E94B8040FB6F894DEBF0FBECDBFEA
:1018900028960FB6F894DEBF0FBECDBFDF91CF9173
:1018A0001F910F9108951F93CF93DF93EC01FB01DC
:1018B0001281112309F456C08436910541F0D8F401
:1018C0008B32910521F088F40497849788F40E9464
:1018D000D80B80911B01882399F1CE010E94000C46
:1018E00082E00E941B1910E02BC08D970C9778F3B3
:1018F0000E94D80B25C089319C4589F1CA318CE5FD
:10190000D80788F4C731ECE5DE0719F18091190199
:1019100090911A010597C831DC4551F790931A014F
:10192000809319010DC0CB318CE5D80771F030F0F0
:10193000CC31DC45E9F60E941C0C02C00E94100C60
:10194000812FDF91CF911F91089581E080931B013A
:10195000F7CF8091190190911A010596DFCF0E946F
:10196000200CEECF0E94D80B11E0EACF8EE1489B0D
:1019700002C08150E1F7489BFECF0895589880E25D
:101980008A95F1F7589A0895FC013BE03A95F1F7F2
:1019900098E020E080E031E040E14A95F1F7880FDF
:1019A000489B02C08160232742E04A95F1F700007E
:1019B00040E14A95F1F7915079F790E19A95F1F766
:1019C00099B132E03A95F1F7000040E14A95F1F71C
:1019D000917092272081920F90830895EF92FF9249
:1019E0000F931F93CF93DF930F92CDB7DEB719827A
:1019F0008C017C01E60EF11C0E151F0561F481E0DF
:101A00009981911180E00F90DF91CF911F910F91FB
:101A1000FF90EF9008950E94B60CCE0101960E94AF
:101A2000C40CF80181938F01E7CF9093BC018093A0
:101A3000BB01509A589A08959093BC018093BB01C2
:101A40005098589AE89AE9E6F0E080818C7F80838C
:101A500008956150770B91E001C0990F6A95EAF7FC
:101A600020E031E0911108C0222391F0589A80E2E1
:101A70008A95F1F758980895492F482339F0589AD4
:101A8000232740E24A95F1F79695ECCF5898F9CF85
:101A90005898EDCFFF920F931F93CF93DF93EC01F4
:101AA0008C01060F111DC017D10731F4DF91CF91C2
:101AB0001F910F91FF900895F9900E94BE0C68E06D
:101AC0008F2D0E94290DEFCF1F920F920FB60F920C
:101AD00011242F933F934F935F936F937F938F9333
:101AE0009F93AF93BF93CF93DF93EF93FF93589858
:101AF000509AC091BB01D091BC016D81662321F049
:101B00008E819F810E944A0D0E94BE0C80E18A95C1
:101B1000F1F758985098589A80E18A95F1F76A81C0
:101B2000662309F18B819C810E94EE0CE881F9818A
:101B3000882311F088E001C082E080830E94B60C07
:101B4000FF91EF91DF91CF91BF91AF919F918F91D5
:101B50007F916F915F914F913F912F910F900FBEA9
:101B60000F901F901895E881F981E4CFCF93DF9310
:101B7000C091BB01D091BC01F894509A589885E06F
:101B80008A95F1F700005098589A80E28A95F1F70B
:101B9000489B0CC0509A589AE881F98181E0808373
:101BA000789481E090E0DF91CF9108956D81662374
:101BB00081F08E819F810E94EE0C81110AC0509AA3
:101BC000589AE881F98182E08083789482E090E0FD
:101BD000EACF0E94B60C80E28A95F1F75898509AA5
:101BE00080E18A95F1F76A81662321F08B819C81DF
:101BF0000E944A0D0E94BE0CE881F98110827894FF
:101C000090E080E0D0CF9093C2018093C10108950D
:101C1000E091C101F091C201309721F00190F08173
:101C2000E02D099480E00895EF92FF920F931F93A7
:101C3000CF93DF938C01E091C101F091C201309705
:101C4000C1F10280F381E02D09958091440282FF69
:101C500030C080FF04C08DEF92E00E94A002D0E06F
:101C6000C0E087EFE82E82E0F82E8091440280FFEA
:101C70000EC0F801EC0FFD1F80811F928F93FF9221
:101C8000EF920E9439030F900F900F900F902196C2
:101C9000C830D10551F78091440280FF0AC085EF1A
:101CA00092E0DF91CF911F910F91FF90EF900C94F4
:101CB000A002DF91CF911F910F91FF90EF900895B7
:101CC0002091BF013091C0012817390771F090931E
:101CD000C0018093BF01E091C101F091C201309732
:101CE00021F00680F781E02D099408952091BD012F
:101CF0003091BE012817390771F09093BE0180938F
:101D0000BD01E091C101F091C201309721F0008442
:101D1000F185E02D0994089585B7806885BF85B762
:101D2000806885BF0895089508950C94930E0895D2
:101D30000C94970E0E948C0E0E94940E0C94950E9B
:101D40000C944D090E94BB1A0E9499070E94271B00
:101D50000C94980ECF93C82F8091440282FF1EC02E
:101D600080FF1CC086E193E00E94A00280914402A3
:101D700080FF14C01F92CF9381E193E09F938F93D4
:101D80000E943903809144020F900F900F900F90A2
:101D900080FF04C08FE093E00E94A0028C2FCF91BF
:101DA0000C94CC04AF92BF92CF92DF92EF92FF924D
:101DB0000F931F93CF93DF93CDB7DEB72A970FB65C
:101DC000F894DEBF0FBECDBF0E9462080E94A00E35
:101DD000882309F45CC084ECA82E81E0B82E10E0C2
:101DE00000E0C02E802F0E944807E82EF501D19018
:101DF0005F01D81609F445C08091440281FD0E941C
:101E00004E0780E0FF24F394DE249D2D9F21A9F14D
:101E10008E83CF82EF2081E009F480E088870E94E2
:101E2000C41A8160782F9A8789874E815F8168857F
:101E30008A850E94690FF801EC53FE4F8081F826D5
:101E4000F0820E94080E9091C301891789F10E94C7
:101E5000080E8093C3012A960FB6F894DEBF0FBE1A
:101E6000CDBFDF91CF911F910F91FF90EF90DF9049
:101E7000CF90BF90AF900C94AA0E8F5FFF0C86306E
:101E800021F60F5F1F4F0A30110509F0AACF8FEF1F
:101E900089838A831B820E94C41A8160782F9D8364
:101EA0008C8349815A816B818D810E94690FC9CFD2
:101EB0002A960FB6F894DEBF0FBECDBFDF91CF914B
:101EC0001F910F91FF90EF90DF90CF90BF90AF9058
:101ED0000895CF93DF93CDB7DEB72B970FB6F89465
:101EE000DEBF0FBECDBF4F83588769877A878B8748
:101EF0001E821D8285E0FE013796DE01119601905B
:101F00000D928A95E1F749815A816B817C818D819F
:101F10009E812B960FB6F894DEBF0FBECDBFDF912A
:101F2000CF910C947815FC01808191810C9431182B
:101F3000CF93C82F882309F483C08238C1F40E944C
:101F4000080E81FD7DC089E30E945F180E94D018B1
:101F50002FEF81EE94E0215080409040E1F700C0E7
:101F6000000089E30E946618CF910C94D018833842
:101F7000A1F40E94080E80FD63C083E50E945F18F3
:101F80000E94D0182FEF81EE94E0215080409040C5
:101F9000E1F700C0000083E5E5CF8438A1F40E949A
:101FA000080E82FD4DC087E40E945F180E94D01881
:101FB0002FEF81EE94E0215080409040E1F700C087
:101FC000000087E4CFCF8CEF8C0F813A90F46C2F18
:101FD00080911C0190911D010E94FF19882329F016
:101FE0008C2F0E9466180E94D0188C2F0E945F18B8
:101FF000BBCF80E28C0F883048F4C77081E001C00D
:10200000880FCA95EAF70E948718AECFEBE5EC0F70
:10201000E33040F4F0E0ED56FE4F808190E0CF9148
:102020000C94600EC85AC73158F4EC2FF0E0EE0F54
:10203000FF1FEB59FE4F80819181CF910C94760E5A
:10204000CF910895882309F44BC0823871F40E941F
:10205000080E81FF45C089E30E945F180E94D018D6
:1020600089E30E9466180C94D018833859F40E94B2
:10207000080E80FF35C083E50E945F180E94D018CB
:1020800083E5EFCF843859F40E94080E82FF28C000
:1020900087E40E945F180E94D01887E4E2CF9CEF8B
:1020A000980F913AF0F290E2980F983050F48770C0
:1020B00091E001C0990F8A95EAF7892F0E948D1847
:1020C000D2CF9BE5980F933020F490E080E00C9401
:1020D000600E885A873120F490E080E00C94760EF0
:1020E0000895CF93C82F0E94980FC93349F42FEF5A
:1020F00087EE93E0215080409040E1F700C000005F
:102100008C2FCF910C942210882321F00E948718E5
:102110000C94D0180895882321F00E948D180C94F7
:10212000D0180895BF92CF92DF92EF92FF920F9353
:102130001F93CF93DF936C01D62FC72FFC0105812E
:1021400002950F70128111110E94A4180E947D182F
:10215000E82E882391F01123D1F08C2F807F8034DA
:1021600021F080E28D0F883090F082E00E941B19F0
:102170000E947D1891E0E82EE926BC2EB2949FE0E3
:10218000B922EB2DF0E0E753FA4D0C94A122E12C9B
:10219000F4CF0C2F0F70C07F11F00295007F112338
:1021A000A9F0002359F080E28D0F883010F0D11192
:1021B00009C0802F0E9487180E94D0188D2F0E947E
:1021C000980F14C0802F0E949718F6CF8D2F0E9471
:1021D0002210002359F080E28D0F883010F0D111C9
:1021E0002CC0802F0E948D180E94D0182B2D2850B3
:1021F000330B2430310520F40E94080E0E94CC04D9
:10220000EE2009F493C10E94791880FD8FC1F60178
:1022100012820E9473180E94FC16C6010E94B71217
:102220000E947318DF91CF911F910F91FF90EF9053
:10223000DF90CF90BF900C941D17802F0E949D18A7
:10224000D3CFFC2FFF70FF2EC07FC03219F0F29465
:1022500080EFF822DD2369F0D13049F1112391F1AB
:10226000002351F1F601858180FFA8CF8F7085830F
:1022700023C0112381F0011106C00E94B7188F29D5
:102280000E948410B3CF0130C1F70E94B7188F2984
:102290000E94BD18ABCF011106C00E94C6188F2D39
:1022A0000E948B10A3CF013009F4A0CFF6CF1123E9
:1022B00029F0063008F09ACF8F2DE2CF053008F0D4
:1022C00095CFEDCF002359F3D93349F4FFEF27EE33
:1022D00033E0F15020403040E1F700C000008D2F86
:1022E0000E94221083CF8C2F86958695837069F08B
:1022F000813009F07BCF8D2F9C2F9370111102C07C
:1023000090E080E00E94760E71CF8D2F9C2F93700D
:10231000111102C090E080E00E94600E67CF8C2F08
:10232000837009F041C0111161CF4D2F4295469540
:102330004770440F440F0D2F0F7010E030E020E085
:10234000042E04C0000F111F221F331F0A94D2F75E
:1023500060E070E0CB01D4FF0FC06FE070E080E080
:1023600090E004C0660F771F881F991F4A95D2F727
:102370006095709580959095C695C695C370602BB5
:10238000712B822B932BC23049F058F4C13019F0D5
:102390000E94AE162BCF0E949C1628CF0E94C0161A
:1023A00025CF0E949A1622CF8695112311F08C2FEB
:1023B0008170882309F41ACF4D2F429546954770B6
:1023C000440F440F0D2F0F7010E030E020E0042E7A
:1023D00004C0000F111F221F331F0A94D2F760E0C0
:1023E00070E0CB01D4FF0FC06FE070E080E090E0C0
:1023F00004C0660F771F881F991F4A95D2F7609512
:10240000709580959095C695C695C370602B712B7D
:10241000822B932BC23049F058F4C13019F00E943E
:102420007317E4CE0E946117E1CE0E948517DECEBD
:102430000E94D616DBCECF70112329F08C2F0E947C
:10244000FC168D2F1DCF8D2F0E948B108C2F0E947C
:102450001D17CCCED23F89F160F4D03FC9F0D13FF7
:1024600029F1112309F442C00111A8CE8C2F8F71DC
:1024700021C0D33F39F1D43FA1F7112369F1CF71C6
:102480008C2F0E94FC1663E08C2F0E940619AECEA2
:10249000112341F0053008F0A9CE8C2F8F710E94D6
:1024A0004017A4CE063008F0A1CEF7CF8C2F8F7145
:1024B000112369F20E94FC1699CE8C2F8F71112383
:1024C000C9F3C5CF112329F08C2F8F710E94E71615
:1024D0008DCE0E94E2168ACE81E00E941B19023046
:1024E00008F484CE82E00E941B1980CE002359F0AC
:1024F000D93309F0F4CE8FEF97EEE3E081509040AE
:10250000E040E1F7EACE8C2F8F71A1CF4C2F4F70B6
:102510006D2FC6010E943C050E94121667CE4C2FFB
:102520004F706D2FC6010E943F0560CEDF91CF91A5
:102530001F910F91FF90EF90DF90CF90BF90089583
:102540000F931F93CF93DF93EC01688179818A8188
:102550000E943B188C010E9497170E949916B8019F
:10256000CE01DF91CF911F910F910C949210CF93D8
:10257000DF93EC018B819C81892B29F088819981E3
:1025800089238F3F59F4DF91CF910895CE010E94A6
:10259000A012CE01DF91CF910C94F903CE010E94DD
:1025A000E4048111F3CF0E947D18882361F38A81AE
:1025B000882349F382E0DF91CF910C941B19882383
:1025C00021F00E9497180C94D0180895882321F0C8
:1025D0000E949D180C94D01808950E94A4180E947F
:1025E000B4180E94D01890E080E00E94600E90E045
:1025F00080E00C94760E0E946D180C94ED120E94EF
:1026000094180C94FB12E92FE295EF70E250EE3033
:1026100070F4F0E0E752FA4D0C94A122803F19F0DB
:1026200020F4883E20F481E00895843FE1F380E0C7
:102630000895883EC0F3813FD1F7F5CF93FB8827FB
:1026400080F908950E9431180C940313CF93DF93FF
:1026500000D000D00F92CDB7DEB70F900F900F9043
:102660000F900F90DF91CF910895CF93DF9300D01B
:1026700000D000D0CDB7DEB726960FB6F894DEBFF7
:102680000FBECDBFDF91CF9108951F93CF93DF93FE
:10269000C091CF0116E08091D0018C1304C0DF916E
:1026A000CF911F910895D0E01C9FF0011D9FF00D68
:1026B0001124EF52FE4F40815181628173818481E8
:1026C00095810E9435132196C770E5CF4091010294
:1026D0005091020260910302709104028091050200
:1026E000909106020C9435131F93CF93DF93809142
:1026F0000602807FA9F480910302882389F08091EB
:10270000CF01C091D0016091010270910202A091AD
:102710000402B0910502D62FD72316E0C81304C0D7
:10272000DF91CF911F91089590E0109711F0DF3F56
:1027300019F401968770F2CF189F9001199F300D00
:102740001124F901EF52FE4F41814713F2CF40812E
:102750004613EFCF42814111ECCF438154814A1B94
:102760005B0B483C510528F7809106028F70806111
:1027700080930602F901EA52FE4F80818F708061DA
:10278000808381E092E00E94B712DF91CF911F9188
:102790000C944513AF92BF92CF92DF92EF92FF92CB
:1027A0000F931F93CF93DF93CDB7DEB761970FB62B
:1027B000F894DEBF0FBECDBF8C0185E0F801DE01CD
:1027C0001D9601900D928A95E1F7F80140815181A3
:1027D000E28081E0C82E82E0D82E609104027091E0
:1027E00005026115710509F461C190910102209102
:1027F0000202892F82238F3F09F458C1A380B4803D
:10280000F0900302F501E61BF70BFF2009F4FCC072
:1028100080910602382F307FE83CF10508F0B2C005
:10282000311179C0FE2C251323C0941321C0E1106F
:102830001FC08F708061809306020E946613C601DC
:102840000E94B71280910602F80185838F2D619650
:102850000FB6F894DEBF0FBECDBFDF91CF911F91B1
:102860000F91FF90EF90DF90CF90BF90AF900895C1
:10287000AB2829F0842F85238F3F09F033C180E0F6
:10288000F82FF170DF2E80FF3CC08091CF012091A6
:10289000D00136E0821315C04D875E878D859E85F9
:1028A0000E943118292F22952F702230F0F0243009
:1028B00018F59F70F1F0F8019581907FD1F4D12C3B
:1028C0001EC090E0389FF001399FF00D1124EF52A7
:1028D000FE4F6181651306C06081641303C062818D
:1028E0006E110FC001968770D5CF9F7011F08823AD
:1028F00031F3805E883018F3C8010E94B712FD2CB6
:10290000A5CFEE2009F4A2CF8091060281608093CA
:102910000602F12C9BCF251306C0941304C0F801C6
:10292000EE2009F48DC04D875E878D859E850E94BF
:102930002213882319F1EE2009F1809106028032DA
:1029400070F0209101023091020238872F8319869E
:10295000BB86AA868C87CE0107960E94B71286E0B6
:10296000F801A1E0B2E001900D928A95E1F70E9492
:1029700074130E946613FF24F39468CFC8010E9469
:10298000B712F9CF311113C07A2DB98AA88A6E2DEA
:1029900089890E94261381E092E00E94B71286E0A6
:1029A000F60111928A95E9F70E946613B2CF2513BA
:1029B0000FC094130DC0E1100BC0F8018583C8014E
:1029C0000E94B71286E0F60111928A95E9F73ECF90
:1029D0004D875E878D859E850E942213882371F224
:1029E000EE2061F280910602803208F4B8CF209187
:1029F0000102309102023A8329831B82BD82AC829C
:102A00008E83CE010196A9CFE83CF10508F041C0C4
:102A1000FE2CEE2009F4B2CF25132AC0941328C04F
:102A20008091060280FD1BC0982F907FC1F0F801B5
:102A30008583903F31F0982F907F905F8F70892B26
:102A40008583C8010E94B71286E0F801A1E0B2E0D8
:102A500001900D928A95E1F70E946613F7CE86E009
:102A6000F801A1E0B2E001900D928A95E1F7EECE77
:102A70004D875E878D859E850E94221381116FCFC1
:102A800080910602816080930602C8010E94B712FD
:102A9000DDCE7A2DB98AA88A6E2D89890E942613E7
:102AA00086E0F60111928A95E9F7D6CFEE2009F477
:102AB00065CF4D875E878D859E850E942213F82EF7
:102AC000882309F45BCF86E0F801A1E0B2E0019031
:102AD0000D928A95E1F781E092E00E94930F0E94A7
:102AE0007413BACF81E08E25CBCE88EC90E00895A8
:102AF0001F93CF93DF93CDB7DEB72C970FB6F89423
:102B0000DEBF0FBECDBF4F83588769877A878B871B
:102B10009C87CE0107960E94CA13882369F08A8594
:102B20009B85892B39F04F815885842F85238F3FD2
:102B300009F071C016E05FC086E0FE013796DE0145
:102B4000119601900D928A95E1F78A859B85892BD4
:102B500089F388859F8189238F3F61F32091D0017C
:102B600030E0C9010196877099274091CF0148173D
:102B7000190671F40E94FF121092D0011092CF0139
:102B800086E0E1E0F2E0DF011D928A95E9F7D2CF1D
:102B900096E0929FD001939FB00D1124AF52BE4F8B
:102BA000FE01319601900D929A95E1F78093D00144
:102BB0000E944513BFCF819FC00111248F529E4FA9
:102BC0000E94CA138823E9F0E091CF011E9FF00113
:102BD0001124EF52FE4F40815181628173818481C3
:102BE00095810E9435138091CF0190E00196877006
:102BF00099278093CF018091CF019091D0018913C3
:102C0000DACF2C960FB6F894DEBF0FBECDBFDF91A2
:102C1000CF911F91089569857A858B859C850E9447
:102C2000351388CFEF92FF920F931F93CF93DF93CB
:102C30008C01892B81F0F12CEE24E394E80121969C
:102C4000F8018491843770F4843008F05FC08130DB
:102C5000B1F08230A1F1DF91CF911F910F91FF90E0
:102C6000EF900895853709F44CC008F43DC09CE707
:102C7000980F903780F78F770E94221049C00E5F1F
:102C80001F4FFE01849190E2980F983060F4877096
:102C9000FE2D01C0FF0F8A95EAF78F2F0E94A7181B
:102CA0000E94D01802C00E94980F8F2D815030F2E0
:102CB000EFE9FFE03197F1F700C00000F7CF0E5FBA
:102CC0001F4FFE01849190E2980F983050F4877066
:102CD000FE2D01C0FF0F8A95EAF78F2F0E94AD18D5
:102CE000DFCF0E942210E1CF0E5F1F4FFE01C49183
:102CF000C150D8F28FE99FE00197F1F700C00000C2
:102D0000F7CF0E5F1F4FFE01F490CFCF0E94980FB8
:102D10008E01CBCF08950C948A160E948B16609377
:102D200033027093340280933502909336020C94F0
:102D3000ED1208950C948D160F931F93009133029A
:102D4000109134022091350230913602602B712BA4
:102D5000822B932B1F910F910C948D160F931F9321
:102D600000913302109134022091350230913602E5
:102D700060237123822393231F910F910C948D164E
:102D80000F931F930091330210913402209135026A
:102D90003091360260277127822793271F910F9168
:102DA0000C948D160C948A160C94D2160E94D4168C
:102DB00060932F027093300280933102909332021D
:102DC0000C94ED1260E070E0CB010C94D6160F93DA
:102DD0001F9341E050E060E070E08A019B0104C075
:102DE000000F111F221F331F8A95D2F7C901B801A6
:102DF0001F910F910C94D6160F931F9341E050E052
:102E000060E070E004C0440F551F661F771F8A956D
:102E1000D2F780912F0290913002A0913102B091AF
:102E200032028A019B01082B192B2A2B3B2BC9014B
:102E3000B8011F910F910C94D6160F931F9341E088
:102E400050E060E070E004C0440F551F661F771F1C
:102E50008A95D2F7CB01BA016095709580959095CF
:102E600000912F02109130022091310230913202F4
:102E700060237123822393231F910F910C94D61604
:102E80000F931F9341E050E060E070E004C0440FF6
:102E9000551F661F771F8A95D2F780912F02909158
:102EA0003002A0913102B09132028A019B010827C1
:102EB00019272A273B27C901B8011F910F910C94AC
:102EC000D6160F931F9300912F021091300220917C
:102ED000310230913202602B712B822B932B1F9188
:102EE0000F910C94D6160F931F9300912F021091FF
:102EF000300220913102309132026023712382230B
:102F000093231F910F910C94D6160F931F9300914A
:102F10002F0210913002209131023091320260274D
:102F20007127822793271F910F910C94D61608952D
:102F3000E92FEE0FE90FEE0F8E0F982F977041E0FB
:102F400001C0440F9A95EAF786958695869595E097
:102F5000899FF0011124E95FFD4F30E020E070E02F
:102F60005191DF011197CB01022E02C096958795F2
:102F70000A94E2F7817081958527842385278C93B5
:102F80002F5F3F4F2530310559F70895E92FEE0F98
:102F9000E90FEE0F8E0F982F977086958695869580
:102FA00025E0829FF0011124E95FFD4F50E040E0F1
:102FB00080E0219130E0092E02C0369527950A94D1
:102FC000E2F721703327042E01C0220F0A94EAF79A
:102FD000822B4F5F5F4F4530510559F70895BF92DF
:102FE000CF92DF92EF92FF920F931F93CF93DF93D5
:102FF0008C01C0902F02D0903002E0903102F0900E
:1030000032028091330290913402A0913502B09146
:103010003602C82AD92AEA2AFB2ACFE1D0E0BC2E00
:10302000D701C6010C2E04C0B695A7959795879534
:103030000A94D2F780FD0EC0219788F7B12C8B2D12
:10304000DF91CF911F910F91FF90EF90DF90CF9084
:10305000BF900895B8018C2F0E945C05019761F321
:10306000EECFCF93DF93EC010E94EF17BE01DF910B
:10307000CF910C945C051F93CF93DF93EB0190915C
:10308000CE01992331F0CB01DF91CF911F910C94A8
:103090003118882379F0CB010E94EF17182F682F81
:1030A000CE010E949817BE01812FDF91CF911F9111
:1030B0000C945C05CB010E94C617182FF4CF682F23
:1030C00080911C0190911D010C94351A682F8091FC
:1030D0001C0190911D010C94371A80911C01909154
:1030E0001D010C94391A8091370285958595859537
:1030F00008958091370287700895909137029770F4
:1031000081E009F480E00895809143020895909150
:103110004302892B80934302089580959091430246
:10312000982390934302089510924302089590913A
:103130004202892B80934202089580959091420229
:10314000982390934202089510924202089590911C
:103150004102892B8093410208958095909141020C
:10316000982390934102089510924102089580910E
:103170003802089508950C94BA189091380298175F
:1031800021F0809338020C94BB1808958091380286
:10319000882329F01092380280E00C94BB1808951F
:1031A000E0911C01F0911D01809143028083E09128
:1031B0001C01F0911D01808190914202892B808336
:1031C000E0911C01F0911D01808190914102892BB9
:1031D000808390913802992381F0E0911C01F09155
:1031E0001D018081892B808380911C0190911D019C
:1031F0000E94ED1981110E94C61880911C019091C6
:103200001D010C94140E08950C94031998E0899FE5
:1032100090011124622B609337020E94FC1680916A
:1032200037028595859585950C940419109237027F
:1032300080E00C9404199091370280958923809343
:103240003702282F277071F4282F082E000C330B1B
:103250009217130639F08595859585950E941D175F
:103260000C94161908959093A7018093A6010895D0
:10327000829590E09C01220F331F220F331F2C7C7C
:1032800095958795959587958373282B30E0C9018F
:10329000880F991F8A7A359527952575822B089571
:1032A00090E080E00E94562521E08C3E9E4F09F080
:1032B00020E0822F089582E090E00C944E2583E078
:1032C00090E00C944E25CF9384E090E00E944E2530
:1032D000C82F81E290E00E944E25982F8C2FCF912D
:1032E0000895CF93C92F682F84E090E00E945C2559
:1032F0006C2F81E290E0CF910C945C25AB01BC0176
:103300008FE090E00C946E25AB01BC0183E190E06E
:103310000C946E2560E070E0CB010C9484196CEE87
:103320007EEF90E080E00E947A2560E082E090E00D
:103330000E945C2560E083E090E00E945C25109292
:10334000330210923402109235021092360260E07D
:1033500084E090E00E945C2560E081E290E00E94C1
:103360005C2560E085E090E00E945C2560E086E0FE
:1033700090E00E945C256FEF87E090E00E945C2562
:1033800040E050E0BA0188E090E00E946E2560E0E5
:103390008DE090E00E945C2540E050E0BA0188E1B9
:1033A00090E00E946E2560E087E190E00E945C253D
:1033B00040E050E0BA018CE190E00E946E2560E0B0
:1033C00080E290E00E945C250C9442030C948F19DB
:1033D000682F8EE090E00C945C259C012E5F3F4F9F
:1033E000AC01485F5F4F80E02417350709F408956A
:1033F000F90191919F019923B9F38F5FF5CF66236E
:1034000049F0FC01329608962191261729F0E81719
:10341000F907D1F780E0089581E008959C01FC014F
:1034200032969FEF80E04191461751F09F3F19F48B
:10343000411101C0982F8F5F8630A9F79F3F09F493
:103440000895290F311D97FD3A95F901628308957A
:10345000FC01329608962191261303C0DF011197D3
:103460001C92E817F907B9F708950C940E1A0C94FA
:10347000281A029626E0FC0111922A95E9F7089590
:10348000089508950C94411A0E94421A8091730283
:10349000843049F11092450288E190E020E40FB6B3
:1034A000F894A895809360000FBE2093600080E0A0
:1034B0000E94CC040E94421A83B7817F846083BF3C
:1034C00083B7816083BF7894889583B78E7F83BFED
:1034D0000FB6F894A8958091600088618093600091
:1034E000109260000FBE08950895CF930E94401A75
:1034F0000E9462080E94741AC0E08C2F0E94480744
:10350000811105C0CF5FCA30C1F7CF91089581E026
:10351000FCCF08950C94891A0E94FF120E94080E95
:103520000E94CC040C948A1A1F921FB61F92112479
:103530008F939F93AF93BF9380914502811113C0E6
:103540008091690290916A02A0916B02B0916C0225
:103550004196A11DB11D8093690290936A02A093C8
:103560006B02B0936C02BF91AF919F918F911F90AE
:103570001FBE1F90189582E084BD93E095BD9AEF21
:1035800097BD80936E0008952FB7F89480916902DB
:1035900090916A02A0916B02B0916C022FBF0895C6
:1035A0009C014FB7F8948091690290916A02A091B2
:1035B0006B02B0916C024FBF821B930B08957894FD
:1035C0001F921FB61F9211248F939F93AF93BF93A7
:1035D0008091690290916A02A0916B02B0916C0295
:1035E0000196A11DB11D8093690290936A02A09378
:1035F0006B02B0936C02BF91AF919F918F911F901E
:103600001FBE1F90189581E08093E00080E28093B8
:10361000D8001092C9008FE19EE40197F1F700C035
:10362000000087E090EBDC0180937C0290937D02A8
:10363000A0937E02B0937F0288E19CE00FB6F894DD
:10364000A895809360000FBE90936000FFCF0E940A
:103650005019811102C00E94E6190E945B198093E3
:1036600044020E94631990936E0280936D020E943F
:103670005F19682F70E090E080E00E949A166091D8
:103680002F027091300280913102909132020C949D
:10369000D41680915102089508959FB7F89410921E
:1036A00048029FBF90917302943009F048C0209166
:1036B000E9002F703091EC00932F917030FD90E86D
:1036C000922B23E02093E9002091EB0020FF34C0EF
:1036D0002091EE0027FF30C020914602222321F0E6
:1036E0002091E80025FF28C01092460226E0309184
:1036F000E80035FF14C08093F1008091E80085FD5B
:1037000027C08091E80080FFFCCF8091E8008E7791
:103710008093E8009F709093E90080E008953091D5
:103720007302343049F43091EB0035FD05C021506F
:1037300041F481E0809346029F709093E9008FEFFF
:103740000895EFE9FFE03197F1F700C00000CFCF17
:103750008FB7F89421E0209348028FBFDBCFCF933F
:10376000DF9300D00F92CDB7DEB790917302943003
:1037700019F589837B836A8382E08093E9008FEF68
:103780009091E800815095FD06C095ED9A95F1F76E
:1037900000008111F5CF8091E80085FF0DC050E059
:1037A00040E063E070E0CE0101960E94051E80912A
:1037B000E8008E778093E8000F900F900F90DF91D4
:1037C000CF910895BC0184E00C94AF1BBC0183E051
:1037D0000C94AF1BCF93DF93EC0181E08093E90061
:1037E0008FEF9091E800815095FD06C095ED9A9578
:1037F000F1F700008111F5CF8091E80085FF14C03A
:1038000050E040E068E070E0CE010E94051E80912B
:10381000E8008E778093E80088E0FE01A9E4B2E03A
:1038200001900D928A95E1F7DF91CF9108958EE492
:1038300093E00E94A00280917202811109C00E944F
:10384000951F0E94F21F8091E20084608093E20045
:1038500008958AE493E00E94A002109272020895F3
:1038600086E493E00C94A00282E493E00C94A0021E
:103870008EE393E00E94A0020C948C1A20914702E0
:103880002F5F822F62E30E949522992319F02093E3
:103890004702089510924702809148028823F1F070
:1038A000809173028430C1F49091E9009F7020915F
:1038B000EC00822F817020FD80E8892B93E09093AB
:1038C000E9009091EB0090FF04C09091EE0097FD0D
:1038D00008C08F708093E9001092480208951092FA
:1038E000F1009091E80095FDFACF9091E80090FFEB
:1038F000F0CF9091E8009E779093E800EACF42E005
:1039000061EC81E00E94111F42E261EC82E00E94C2
:10391000111F42E261EC83E00C94111F809175024B
:10392000833009F45FC030F48130C1F1823009F492
:103930009BC008958A3009F487C08B3009F46DC0AC
:10394000893009F04EC080917402813209F049C07B
:103950008091780290917902029708F042C080919C
:10396000E800877F8093E8008091E80082FF35C0FF
:103970009091F3008091F200029729F48091F10078
:103980008B7F813021F48091F100809351028091EE
:10399000E8008B778093E8000C94451F80917402B7
:1039A000813AF9F48091E800877F8093E800809164
:1039B000780290917902892B61F468E089E492E0C1
:1039C00070E00E94541E8091E8008B778093E8009D
:1039D000089560E090E080E0F3CF80917302811160
:1039E000C3CF089580917402813AD9F7809178020B
:1039F00090917902892BA9F78091E800877F8093C5
:103A0000E8008091E80080FFFCCF8091280180933E
:103A1000F1008091E8008E77BDCF809174028132F1
:103A200001F78091780290917902892BD1F68091EB
:103A3000E800877F8093E8000E94451F809176020E
:103A4000809328010C94FF1280917402813249F610
:103A50008091E800877F8093E8000E94451F809155
:103A6000770280935202089580917402813A09F09E
:103A7000B8CF8091E800877F8093E8008091E800CC
:103A800080FFFCCF80915202C2CF84B7877F84BF72
:103A90000FB6F894A89580916000886180936000CB
:103AA000109260000FBE80E890E00FB6F89480930B
:103AB0006100909361000FBE0E949A0E0E94951FB4
:103AC0000E94F21F8091E20084608093E2008DE406
:103AD0009BE10E94331978940E947A220E94A20EE0
:103AE0008EE191E00E94030E8DE293E00E94A0021D
:103AF00080917302853019F00E94D20EF9CF89E2CD
:103B000093E00E94A0020E94441A809171028823CF
:103B100079F30E94751A882359F30E94EF1DE8CFAC
:103B20000C94921D292F33272330310521F168F49D
:103B30002130310509F449C02230310509F44AC069
:103B400090E080E030E020E029C02132310581F1B1
:103B500022323105A9F76330710590F7FB01EE0FB2
:103B6000FF1FE756FE4F208131816A567E4FFB01D1
:103B7000808190E013C099278130910599F00097DA
:103B800041F08230910589F00397D1F6E2E5F3E048
:103B900002C0E0E9F3E0849190E09F01FA013183F3
:103BA00020830895E0E8F3E0F6CFE8E5F3E0F3CF13
:103BB0006330710528F6660F771FFB01E156FE4F53
:103BC0002081318189E090E0E9CF82E190E02FEE21
:103BD00033E0E4CF8BE590E024E933E0DFCF80E110
:103BE00089BD82E189BD09B400FEFDCF8091D80076
:103BF0008F7D8093D8008091E00082608093E00008
:103C00008091E00081FDFCCF0895AF92BF92CF92EA
:103C1000DF92FF920F931F93CF93DF936C01EB0121
:103C20008A010E94641FF82E811123C0011511051D
:103C300039F0F80180819181C81BD90BC80ED91EBB
:103C4000B12CA12C2097A9F08091E80085FD22C01D
:103C50008091E8008E778093E80001151105A1F0AE
:103C6000F80180819181A80EB91EB182A08285E001
:103C7000F82E8F2DDF91CF911F910F91FF90DF9044
:103C8000CF90BF90AF9008950E94641F8823D1F217
:103C9000F82EEFCFF60181916F018093F10021970B
:103CA000FFEFAF1ABF0ACECFFC0180917A0290914C
:103CB0007B0286179707A0F06115710529F4909192
:103CC000E8009E779093E80090E06115710551F44B
:103CD000911108C08091E80082FF34C080E008950F
:103CE000BC01F2CF809173028823C1F18530C1F10C
:103CF0008091E80083FD30C08091E80082FDEACF2A
:103D00008091E80080FFE1CF8091F3002091F200E4
:103D1000382F6115710519F02830310558F091E000
:103D20002830310509F090E02091E8002E772093AB
:103D3000E800CBCF81918093F100615071092F5F32
:103D40003F4FE7CF80917302882341F0853041F0E7
:103D50008091E80083FFBECF81E0089582E008955E
:103D600083E00895FC0180917A0290917B0286178E
:103D70009707A0F06115710529F48091E8008E770E
:103D80008093E80090E06115710551F4911108C02D
:103D90008091E80082FF35C080E00895BC01F2CF39
:103DA000809173028823C9F18530C9F18091E800C0
:103DB00083FD31C08091E80082FDEACF8091E80068
:103DC00080FFE1CF8091F3002091F200382F611540
:103DD000710519F02830310558F091E0283031058F
:103DE00009F090E08091E8008E778093E800CBCFD7
:103DF00084918093F1003196615071092F5F3F4F9C
:103E0000E6CF80917302882341F0853041F08091A4
:103E1000E80083FFBDCF81E0089582E0089583E04C
:103E20000895982F973028F08F708093E90081E0F3
:103E300008959093E900242F762F50E0981731F0E1
:103E40007091EC002091ED005091F00021FD02C036
:103E50009F5FE8CF3091EB003E7F3093EB003091D5
:103E6000ED003D7F3093ED003091EB0031603093F9
:103E7000EB007093EC002093ED005093F000209144
:103E8000EE0027FDE5CF80E008958091740287FF62
:103E900013C08091E80082FF06C08091E8008B7714
:103EA0008093E80004C0809173028111F2CF0895DD
:103EB000809173028823D9F38091E80080FFF8CFC6
:103EC0008091E8008E77ECCF2091E4003091E500FE
:103ED00095E6A9012091EC00822F817020FF06C099
:103EE0008091E80080FF06C080E008952091E800FE
:103EF00022FD1AC080917302882389F0853089F0F1
:103F00008091EB0085FD0FC02091E4003091E50029
:103F100042175307F9F29150E1F684E0089582E0E8
:103F2000089583E0089581E008950E9403200E948F
:103F30000B20E0EEF0E0808181608083E8EDF0E02E
:103F400080818F77808319BCA7EDB0E08C918E7F44
:103F50008C9380818F7E80831092720208950F93DC
:103F60001F93CF93DF930E9403200E940B20C8ED84
:103F7000D0E088818F778883888180688883888172
:103F80008F7D888319BC1092730210926F02109279
:103F900071021092700200EE10E0F80180818B7FB8
:103FA000808388818160888342E060E080E00E94B5
:103FB000111FE1EEF0E080818E7F8083E2EEF0E081
:103FC000808181608083808188608083F801808126
:103FD0008E7F8083888180618883DF91CF911F915C
:103FE0000F910895E8EDF0E080818F7E8083E7ED0A
:103FF000F0E080818160808384E082BF81E08093F3
:1040000072020C94AF1FE8EDF0E080818E7F808318
:104010001092E20008951092DA001092E1000895E3
:104020001F920F920FB60F9211242F933F934F932D
:104030005F936F937F938F939F93AF93BF93EF9310
:10404000FF938091E10082FF0BC08091E20082FF2C
:1040500007C08091E1008B7F8093E1000E943E1CAD
:104060008091DA0080FF19C08091D80080FF15C0D0
:104070008091DA008E7F8093DA008091D90080FFF2
:1040800096C080E189BD82E189BD09B400FEFDCF03
:1040900081E0809373020E94171C8091E10080FFF1
:1040A00019C08091E20080FF15C08091E2008E7FF0
:1040B0008093E2008091E20080618093E200809131
:1040C000D80080628093D80019BC85E08093730289
:1040D0000E94341C8091E10084FF2BC08091E2009B
:1040E00084FF27C080E189BD82E189BD89B5982F11
:1040F000917080FFFBCF8091D8008F7D8093D80096
:104100008091E1008F7E8093E1008091E2008F7EBC
:104110008093E2008091E20081608093E2008091D0
:104120006F02882309F449C084E0809373020E94DF
:10413000381C8091E10083FF29C08091E20083FF59
:1041400025C08091E100877F8093E10082E0809329
:10415000730210926F028091E1008E7F8093E100E4
:104160008091E2008E7F8093E2008091E200806186
:104170008093E20042E060E080E00E94111F8091A5
:10418000F00088608093F0000E94301CFF91EF9156
:10419000BF91AF919F918F917F916F915F914F915F
:1041A0003F912F910F900FBE0F901F90189519BC43
:1041B000109273020E94291C70CF8091E30087FD4A
:1041C00093E090937302B3CF1F920F920FB60F92AA
:1041D00011242F933F934F935F936F937F938F930C
:1041E0009F93AF93BF93CF93DF93EF93FF93D091C0
:1041F000E900DF708091EC00C82FC17080FDC0E83D
:104200001092E9008091F000877F8093F00078940D
:104210000E9428211092E9008091F000886080932C
:10422000F000CD2BCF70C093E900FF91EF91DF91AB
:10423000CF91BF91AF919F918F917F916F915F913E
:104240004F913F912F910F900FBE0F901F90189597
:104250001F93CF93DF93CDB7DEB7AA970FB6F8942D
:10426000DEBF0FBECDBF84E792E02091F100FC01DC
:104270002193CF01F2E08C379F07B9F70E948E1C83
:104280008091E80083FF1EC18091740290917502B5
:104290009A3008F017C1E92FF0E0E951FA4D0C947B
:1042A000A122803899F0823809F00CC180917802FF
:1042B0008F70873008F006C18093E9008091EB0091
:1042C00085FB882780F91092E90006C08091700272
:1042D00090917102911182609091E800977F909384
:1042E000E8008093F1001092F1008091E8008E7751
:1042F000E5C0882309F4D3C0823009F0E3C080917F
:1043000076028111D6C0809178028F702FEF280F2E
:10431000263008F0D7C08093E9002091EB0020FF01
:10432000C8C0933031F48091EB0080628093EB0041
:10433000C0C09091EB0090619093EB0021E030E0E1
:1043400001C0220F8A95EAF72093EA001092EA0052
:104350008091EB008860EACF8111B4C010917602A1
:104360001F778091E3008078812B8093E300809118
:10437000E800877F8093E8000E94451F8091E80055
:1043800080FFFCCF8091E30080688093E30082E0AF
:10439000111183E08093730295C08058823008F039
:1043A00091C080917602909177028C3D23E0920734
:1043B000A1F583E08A838AE289834FB7F894DE010E
:1043C000139620E03EE051E2E32FF0E050935700D7
:1043D000E49120FF03C0E295EF703F5FEF708E2FF6
:1043E00090E0EA30C0F0C7968D939D932F5F243103
:1043F00059F74FBF8091E800877F8093E8006AE219
:1044000070E0CE0101960E94541E8091E8008B77E7
:104410008093E80057C0C096E7CF60917802709112
:104420007902AE014F5F5F4F0E94901DBC01892B46
:1044300009F448C09091E800977F9093E800898143
:104440009A810E94B21EE1CF8038E1F58091E800A8
:10445000877F8093E80080916F028093F10045CFC1
:10446000811130C090917602923060F58091E80021
:10447000877F8093E80090936F020E94451F809190
:104480006F02882311F084E005C08091E30087FD6E
:10449000FACF81E0809373020E947F1C13C0809149
:1044A0007602813079F481E0933009F080E08093E6
:1044B00071021092E9008091E800877F8093E80004
:1044C0000E94451F8091E80083FF0AC08091E800A8
:1044D000877F8093E8008091EB0080628093EB00FF
:1044E000AA960FB6F894DEBF0FBECDBFDF91CF9175
:1044F0001F910895CF93809173028823A1F0C091FA
:10450000E900CF709091EC00892F817090FD80E8D8
:10451000C82B1092E9008091E80083FD0E942821B9
:10452000CF70C093E900CF910895991B79E004C042
:10453000991F961708F0961B881F7A95C9F78095E2
:104540000895EE0FFF1F0590F491E02D0994AEE061
:10455000B0E0EDEAF2E20C949E250D891E898F8968
:10456000988D26E02C831A83098397FF02C080E090
:1045700090E801979E838D83AE01455E5F4F698D04
:104580007A8DCE0101960E94D7224D815E8157FD22
:104590000AC02F813885421753070CF49A01020F85
:1045A000131FF80110822E96E4E00C94BA25AFE0B8
:1045B000B0E0EDEDF2E20C9490257C013B018A0124
:1045C000DC0117961C921E92169713968C9181FF10
:1045D000BEC19AE0292EFE0131964F01D7011396F4
:1045E0009C91F30193FD859193FF81913F01882375
:1045F00009F444C1853239F493FD859193FF81918B
:104600003F01853229F4B70190E00E94C024E6CF33
:10461000B12C412C512CBFE1B51538F08B3209F18A
:1046200088F4803201F1833221F157FC3AC020ED49
:10463000280F2A3040F556FE1FC0B29C200D1124D1
:10464000B22E06C08D3291F0803379F7689450F81D
:10465000F30193FD859193FF81913F018111DBCFA0
:1046600020C0689451F8689452F8F2CF689453F8D7
:10467000EFCF689454F8ECCF429C200D1124422EC9
:10468000689455F8E5CF8E3229F456FCF7C068944B
:1046900056F8DECF8C3619F4689457F8D9CF88369F
:1046A000B9F2982F9F7D95549330C0F08336A1F1D5
:1046B0008337C1F1833509F05BC0D801CD90DD901F
:1046C0008D016B2D70E056FC02C06FEF7FEFC601CD
:1046D0000E94AA245C01689457F80AC00C5F1F4F1F
:1046E000EFE3E983AA24A394B12C6401E89457F87A
:1046F00053FC04C04A141B0409F018F5342CA1140F
:10470000B10431F5332009F469CFB70180E290E0BC
:104710000E94C0243A94F6CFD8018C9189830E5F11
:104720001F4FE0CFF801C190D1908F016B2D70E049
:1047300056FC02C06FEF7FEFC6010E94B5245C01FA
:10474000D5CFB70180E290E00E94C0244A94D2CF36
:10475000F60157FC859157FE81916F01B70190E0FA
:104760000E94C02431103A94B1E0AB1AB108C7CF0F
:10477000843619F0893609F071C0F80157FE67C018
:1047800061917191819191918F01E52DEF76DE2EEE
:1047900097FF09C090958095709561957F4F8F4FD9
:1047A0009F4F6894D7F82AE030E0A4010E94F024DB
:1047B000C82EC818AC2C5D2CD6FE0CC0E89450F85E
:1047C000CB1440F4D4FE05C0D2FC03C05D2D5E7E48
:1047D000552EAB2C54FE93C0FE01EC0DF11D8081D3
:1047E000803309F085C0652D697E562E752D787051
:1047F000372E53FC93C050FE8DC0BC2CA41410F473
:10480000B40CBA1854FE90C0B70180E390E00E9447
:10481000C02452FE07C088E751FC88E590E0B7014C
:104820000E94C024CB1408F48BC0CA94D12C8FEF03
:10483000C81AD80AC80CD91CD6018E916D01B701CF
:1048400090E00E94C0248C149D04B1F75BCF61916D
:104850007191072E000C880B990B96CFD52CE894FC
:10486000D4F82AE0853729F1F52DF97FDF2E80373E
:10487000A1F058F48835A1F08F36D1F0F701868188
:1048800097812F96E2E10C94AC258837B9F7D4FED6
:1048900002C06894D2F820E10CC06894D4F8F7CF35
:1048A00054FE03C02F2F2660D22E20E132E002C03A
:1048B00028E030E0F801D7FE15C041915191619197
:1048C00071914C875D876E877F878F01A4016C850E
:1048D0007D858E859F850E94F024C82EC818E89497
:1048E000D7F868CF81919191AC0170E060E0E9CF99
:1048F00052FC02C0A3947ACFA394A39477CF852DC2
:10490000867809F473CFF6CFB70180E290E00E9479
:10491000C024A394A414C0F3312C74CF342C3A18BF
:10492000A41408F46FCFF8CF852D867809F47ACFD8
:104930008BE251FE80E257FC8DE2B70190E070CF30
:10494000B70180E390E00E94C024BA946BCF8FEF50
:104950009FEF97CFFC010590615070400110D8F790
:10496000809590958E0F9F1F0895FC0161507040B7
:1049700001900110D8F7809590958E0F9F1F089594
:104980000F931F93CF93DF93182F092FEB018B8188
:1049900081FD09C01FEF0FEF812F902FDF91CF9185
:1049A0001F910F91089582FF14C02E813F818C8149
:1049B0009D81281739073CF4E881F981CF010196E0
:1049C0009983888310838E819F8101969F838E8334
:1049D000E3CFE885F985812F0995892BA1F3DACFFB
:1049E000FA01AA27283051F1203181F1E8946F9320
:1049F0006E7F6E5F7F4F8F4F9F4FAF4FB1E03ED0C6
:104A0000B4E03CD0670F781F891F9A1FA11D680F63
:104A1000791F8A1F911DA11D6A0F711D811D911D96
:104A2000A11D20D009F468943F912AE0269F11240B
:104A30003019305D3193DEF6CF010895462F47706F
:104A4000405D4193B3E00FD0C9F7F6CF462F4F70CA
:104A5000405D4A3318F0495D31FD4052419302D028
:104A6000A9F7EACFB4E0A6959795879577956795CE
:104A7000BA95C9F700976105710508959B01AC01CE
:104A80000A2E06945795479537952795BA95C9F7F5
:104A9000620F731F841F951FA01D0895F999FECF03
:104AA00092BD81BDF89A992780B50895A8E1B0E03C
:104AB00042E050E00C948225262FF999FECF92BD5A
:104AC00081BDF89A019700B4021639F01FBA20BDD3
:104AD0000FB6F894FA9AF99A0FBE08950396272F05
:104AE0000E945D250E945C25252F0E945D25242FB4
:104AF0000C945D250196272F0E945D250C945C2562
:104B0000DC01CB01FC01F999FECF06C0F2BDE1BD8D
:104B1000F89A319600B40D9241505040B8F708957C
:104B20002F923F924F925F926F927F928F929F92BD
:104B3000AF92BF92CF92DF92EF92FF920F931F93AB
:104B4000CF93DF93CDB7DEB7CA1BDB0B0FB6F8945C
:104B5000DEBF0FBECDBF09942A88398848885F849C
:104B60006E847D848C849B84AA84B984C884DF800D
:104B7000EE80FD800C811B81AA81B981CE0FD11DF1
:104B80000FB6F894DEBF0FBECDBFED010895F894C7
:104B9000FFCFC910C910211121117311F610F610A1
:104BA000F6108F111B122A122A128612F610F61016
:104BB0008F120E130E13171317131913171317133E
:104BC00017130E130E131E13171317131E13512151
:104BD0007921622279216222AC21CD216222242214
:024BE000302281
:104BE200F1F49392379431F0F5F6F70000000000EB
:104BF20001AD0100AE0105AE01AF00013902491B52
:104C0200EA1B4C1BE61BE21B0194979337F033E23D
:104C120000E900EA00B500B600B700CD008301CC80
:104C2200008A019201940121022302240225022614
:104C32000227022A02B300B4006F0070008182834F
:104C42000A25640A00E200E900EA00B500B600B7EE
:104C520000CD008301CC008A01920194012102233C
:104C62000224022502260227022A02B300B4006FA0
:104C7200007000818283403222550423040104A67D
:064C820003BF03D803008C
:00000001FF
